{
  "contractName": "Lockable",
  "abi": [
    {
      "constant": false,
      "inputs": [],
      "name": "acceptOwnership",
      "outputs": [],
      "payable": false,
      "type": "function",
      "stateMutability": "nonpayable"
    },
    {
      "constant": true,
      "inputs": [],
      "name": "owner",
      "outputs": [
        {
          "name": "",
          "type": "address"
        }
      ],
      "payable": false,
      "type": "function",
      "stateMutability": "view"
    },
    {
      "constant": false,
      "inputs": [
        {
          "name": "_untilBlock",
          "type": "uint256"
        },
        {
          "name": "_reason",
          "type": "string"
        }
      ],
      "name": "lockUntil",
      "outputs": [],
      "payable": false,
      "type": "function",
      "stateMutability": "nonpayable"
    },
    {
      "constant": true,
      "inputs": [],
      "name": "newOwner",
      "outputs": [
        {
          "name": "",
          "type": "address"
        }
      ],
      "payable": false,
      "type": "function",
      "stateMutability": "view"
    },
    {
      "constant": true,
      "inputs": [],
      "name": "lockedUntilBlock",
      "outputs": [
        {
          "name": "",
          "type": "uint256"
        }
      ],
      "payable": false,
      "type": "function",
      "stateMutability": "view"
    },
    {
      "constant": false,
      "inputs": [
        {
          "name": "_newOwner",
          "type": "address"
        }
      ],
      "name": "transferOwnership",
      "outputs": [],
      "payable": false,
      "type": "function",
      "stateMutability": "nonpayable"
    },
    {
      "anonymous": false,
      "inputs": [
        {
          "indexed": false,
          "name": "_untilBlock",
          "type": "uint256"
        },
        {
          "indexed": false,
          "name": "_reason",
          "type": "string"
        }
      ],
      "name": "ContractLocked",
      "type": "event"
    },
    {
      "anonymous": false,
      "inputs": [
        {
          "indexed": false,
          "name": "_prevOwner",
          "type": "address"
        },
        {
          "indexed": false,
          "name": "_newOwner",
          "type": "address"
        }
      ],
      "name": "OwnerUpdate",
      "type": "event"
    }
  ],
  "bytecode": "0x6060604052336000806101000a81548173ffffffffffffffffffffffffffffffffffffffff021916908373ffffffffffffffffffffffffffffffffffffffff16021790555061065c806100536000396000f300606060405260043610610078576000357c0100000000000000000000000000000000000000000000000000000000900463ffffffff16806379ba50971461007d5780638da5cb5b14610092578063b26eafe4146100e7578063d4ee1d901461014d578063d8162db7146101a2578063f2fde38b146101cb575b600080fd5b341561008857600080fd5b610090610204565b005b341561009d57600080fd5b6100a56103e0565b604051808273ffffffffffffffffffffffffffffffffffffffff1673ffffffffffffffffffffffffffffffffffffffff16815260200191505060405180910390f35b34156100f257600080fd5b61014b600480803590602001909190803590602001908201803590602001908080601f01602080910402602001604051908101604052809392919081815260200183838082843782019150505050505091905050610405565b005b341561015857600080fd5b61016061050c565b604051808273ffffffffffffffffffffffffffffffffffffffff1673ffffffffffffffffffffffffffffffffffffffff16815260200191505060405180910390f35b34156101ad57600080fd5b6101b5610532565b6040518082815260200191505060405180910390f35b34156101d657600080fd5b610202600480803573ffffffffffffffffffffffffffffffffffffffff16906020019091905050610538565b005b600160009054906101000a900473ffffffffffffffffffffffffffffffffffffffff1673ffffffffffffffffffffffffffffffffffffffff163373ffffffffffffffffffffffffffffffffffffffff1614151561026057600080fd5b7f343765429aea5a34b3ff6a3785a98a5abb2597aca87bfbb58632c173d585373a6000809054906101000a900473ffffffffffffffffffffffffffffffffffffffff16600160009054906101000a900473ffffffffffffffffffffffffffffffffffffffff16604051808373ffffffffffffffffffffffffffffffffffffffff1673ffffffffffffffffffffffffffffffffffffffff1681526020018273ffffffffffffffffffffffffffffffffffffffff1673ffffffffffffffffffffffffffffffffffffffff1681526020019250505060405180910390a1600160009054906101000a900473ffffffffffffffffffffffffffffffffffffffff166000806101000a81548173ffffffffffffffffffffffffffffffffffffffff021916908373ffffffffffffffffffffffffffffffffffffffff1602179055506000600160006101000a81548173ffffffffffffffffffffffffffffffffffffffff021916908373ffffffffffffffffffffffffffffffffffffffff160217905550565b6000809054906101000a900473ffffffffffffffffffffffffffffffffffffffff1681565b6000809054906101000a900473ffffffffffffffffffffffffffffffffffffffff1673ffffffffffffffffffffffffffffffffffffffff163373ffffffffffffffffffffffffffffffffffffffff1614151561045d57fe5b816002819055507f2c1bcb4f0c190ca2fcb1bb54323892ec36606ef7958dc7a4e1dc599fe2c1c0f082826040518083815260200180602001828103825283818151815260200191508051906020019080838360005b838110156104cd5780820151818401526020810190506104b2565b50505050905090810190601f1680156104fa5780820380516001836020036101000a031916815260200191505b50935050505060405180910390a15050565b600160009054906101000a900473ffffffffffffffffffffffffffffffffffffffff1681565b60025481565b6000809054906101000a900473ffffffffffffffffffffffffffffffffffffffff1673ffffffffffffffffffffffffffffffffffffffff163373ffffffffffffffffffffffffffffffffffffffff1614151561059057fe5b6000809054906101000a900473ffffffffffffffffffffffffffffffffffffffff1673ffffffffffffffffffffffffffffffffffffffff168173ffffffffffffffffffffffffffffffffffffffff16141515156105ec57600080fd5b80600160006101000a81548173ffffffffffffffffffffffffffffffffffffffff021916908373ffffffffffffffffffffffffffffffffffffffff160217905550505600a165627a7a72305820cef4ed4773ec441e585114097e19e21d95132348c407f2936d5b2e4d854bd5910029",
  "source": "pragma solidity ^0.4.13;\r\n\r\nimport \"../Utils/Owned.sol\";\r\n\r\ncontract Lockable is Owned {\r\n\r\n    uint256 public lockedUntilBlock;\r\n\r\n    event ContractLocked(uint256 _untilBlock, string _reason);\r\n\r\n    modifier lockAffected {\r\n        require(block.number > lockedUntilBlock);\r\n        _;\r\n    }\r\n\r\n    function lockFromSelf(uint256 _untilBlock, string _reason) internal {\r\n        lockedUntilBlock = _untilBlock;\r\n        ContractLocked(_untilBlock, _reason);\r\n    }\r\n\r\n\r\n    function lockUntil(uint256 _untilBlock, string _reason) onlyOwner public {\r\n        lockedUntilBlock = _untilBlock;\r\n        ContractLocked(_untilBlock, _reason);\r\n    }\r\n}\r\n",
  "sourcePath": "C:\\Users\\doktorBabo\\Documents\\Dev\\mrp-MoneyRebelToken\\contracts\\Utils\\Lockable.sol",
  "compiler": {
    "name": "solc",
    "version": "0.4.18+commit.9cf6e910.Emscripten.clang"
  },
  "schemaVersion": "1.0.1",
  "updatedAt": "2017-12-09T13:51:11.864Z"
}